:020000040800F2
:10000000E0070020C500000871290008BB23000894
:1000100000000000000000000000000000000000E0
:10002000000000000000000000000000DF2D0008BC
:1000300000000000000000001D2C0008E12D000859
:10004000D7000008D7000008D7000008D700000834
:10005000D7000008D7000008D7000008D700000824
:1000600000000000D70000089D050008D700000828
:10007000D7000008D7000008612E0008D70000084C
:10008000D70000080000000000000000D7000008B2
:1000900000000000D7000008512E0008D70000081B
:1000A00000000000D700000800000000093500082B
:1000B0000348854600F0C2F900480047AD35000806
:1000C000E00700200448804704480047FEE7FEE7B9
:1000D000FEE7FEE7FEE7FEE74F2E0008B10000084E
:1000E00030B50B46014600202022012409E00D46D0
:1000F000D5409D4205D31D469540491B2546954058
:1001000040191546521E002DF1DC30BDF0B51FB46C
:100110000646002082B005464024019100901BE075
:10012000019922460F46304600F020F8049A059BBC
:10013000801A994110D310461946224600F02DF935
:10014000361A8F410197224601200021009F00F0BE
:1001500024F938184D4100902046641E0028DFDC49
:10016000019B00982946324607B0F0BD10B5202A01
:1001700004DB0846203AD040002110BD0B46D34096
:10018000D0402024A21A91400843194610BDD2B293
:1001900001E00270401C491EFBD270470022F6E7C6
:1001A00010B513460A4604461946FFF7F0FF2046ED
:1001B00010BDF8B502464A40D40F42004B00520829
:1001C0005B089A4202D20246084611464A0023D0F2
:1001D000C30D4A00DDB2120EAD1A202D35DA4902E8
:1001E0000126490AF6058A19002C00D05242202126
:1001F0004F1B1146B9402A411018C20D9A4221D016
:10020000002C17D0012D08DCDA05801AD20F8019D6
:10021000D207DBB200F0D9F8F8BDDA05801A012365
:1002200040001B06C01880185A428018CA0F10439D
:10023000490007E04908C2071143DA05801A80190E
:100240004008801800F0B9F8F8BD61000122511A89
:10025000001BF7E70122D2075140AAE70122D2078B
:100260005040A6E7024670B54A40D30FDB07400076
:100270002DD04A002AD0010E140E000212020919D4
:10028000400A520A8418E50104465443000A120A3F
:100290002E045043A4194219200CC543AA18120C6D
:1002A0000125AD03521C521912047F39240400D0D9
:1002B000521C104301D44000491EC2B20C06C009B2
:1002C0002018401C4008802A02D003E0002070BDA6
:1002D00040084000002900DA0020184370BD70B5C6
:1002E00002464A40D50F40004A00ED074008520838
:1002F000002814D0002A12D0C40DD30D41020120D1
:10030000C0055202490A520AE41A091812187D342B
:10031000914201D3641C00E04900002C01DA002066
:1003200070BD0023914201D3891A0343400849005C
:100330000028F7D100290AD0914202D10121C90732
:1003400005E0914201D2012101E00121C943E0050C
:10035000C018401900F031F870BD10B50022962386
:10036000114600F032F810BDC20F410040020123D7
:10037000400ADB05D207090EC0187F2901DA0020E8
:100380007047962903DC9623591AC84001E0963934
:100390008840002AF4D04042704710B5202A04DB80
:1003A0000146203A9140002010BD914020239C1A24
:1003B0000346E3401943904010BD002904DA401C75
:1003C000490001D140084000704770B40024050C7A
:1003D00005D11024000402D1002921D01124050EDA
:1003E00001D100020834050F01D10001241D850F41
:1003F00001D18000A41C002801DB4000641C0029FE
:1004000008D020252E1B0D46F540A14000D001212B
:100410002943084301061B1B000ADB1D02D50020EF
:1004200070BC7047DB05181880180029F8DA401CEA
:100430004900F5D170BC400840007047064C0125CA
:10044000064E05E0E36807CC2B430C3C984710347C
:10045000B442F7D3FFF730FED0390008F039000876
:1004600070B5044600688168490720D58168102668
:100470004907002905DA8168890702D48168314378
:10048000816000F0D3FC05460DE000F0CFFC401B7E
:10049000022808D9A06B3043A063E06B0121084318
:1004A000E063084670BD206880684007EDD40020F6
:1004B00070BDF8B50446006881688907890F012975
:1004C00028D10168C90702D1C168090422D5816811
:1004D000052211401025012601290FD18168022231
:1004E0001143816021680320086000F09FFC0746EB
:1004F0000CE000F09BFCC01B022807D9A06B28432E
:10050000A063E06B3043E0630120F8BD20688068A1
:10051000C007EED10020F8BDF8B5044600200090D9
:10052000206881688907890F012905D10168C907F9
:100530002CD1C168090429D48168154A10261140BC
:100540000125002915D1816829438160124811498C
:100550000068FFF7C5FD00E0401E00900028FBD1B9
:1005600000F064FC07460CE000F060FCC01B0228B1
:1005700007D9A06B3043A063E06B2843E063012000
:10058000F8BD20680068C043C007EDD10020F8BD69
:100590001700008040420F002400002010B50248E0
:1005A00000F0D9FA10BD00001803002010B5044671
:1005B0000068054940181421FFF792FD800020646F
:1005C0000248E06310BD0000F8FFFDBF00000240DC
:1005D00030B5056C0124AC40C56B6C600468636089
:1005E0004368102B036803D099600068C26030BD77
:1005F0009A600068C16030BD7047F8B50546044692
:100600002035287D0026012808D001202875206883
:1006100081688907890F012908D101E00220F8BD0E
:100620000168C90738D1C168090435D4A16BFF221C
:100630000132914302221143A163C1688907890FE6
:100640000091C16889088900C160206881689207AB
:100650001143816000F0EAFB07460EE000F0E6FB84
:10066000C01B022809D9A06B02218843102108432E
:10067000A063002028750120F8BD2068806800284C
:10068000ECDB2068C168009A1143C160A06B800850
:100690008000401CA06304E0A06B20210843A063FD
:1006A0000126002028753046F8BD0000F8B5002569
:1006B000044620340095227D012A3BD00122227578
:1006C00003689E68760776D43F4F4E68BE4254D08A
:1006D0009E6A0F78BA4016439E620123C26A1B07C6
:1006E0009A421FD0012A1DD0022A1BD0032A19D0FA
:1006F000042A17D0052A15D0062A13D0072A11D0AC
:1007000002688B6856697607760FB3420AD0536940
:10071000DB08DB005361006842690B7A5B075B0F03
:100720001A4342610868102806D0112804D0122804
:1007300002D045E00220F8BD244A9368102809D071
:1007400011280AD00120000603439360086810288E
:1007500006D035E00120C005F6E701208005F3E76B
:100760001C481B490068FFF7BBFC0A21484300E016
:10077000401E00900028FBD122E0986A0E78B2401B
:10078000904398620868102803D0112801D01228DD
:1007900016D10E498A68102807D0112808D00120E8
:1007A000000682438A600BE005E00120C005F8E7FF
:1007B00001208005F5E7816B20221143816301252B
:1007C000002020752846F8BD0110000000270140D8
:1007D00040420F0024000020806B70470068006CCE
:1007E00070470000F8B500260446002805D0A06B2D
:1007F00025462035002802D007E00120F8BD002062
:10080000E0632875204600F0A9F8A06B1022C0060E
:10081000002870DB2068816849076CD4A16B130144
:10082000994302231943A16381688907890F01292C
:1008300005D10168C9070FD1C16809040CD4C1688A
:1008400018239943A3681943C1602068016963684C
:1008500089008908194301612068C1683D4B19402E
:10086000C160207E617E8003C9030843A17E4B03E3
:100870001843A36A012B02D001231B0300E00023CD
:100880001843E36818432369022B09D00023184357
:100890002B79E57E5B0018430123012D02D00AE08D
:1008A0000423F4E7002927D0A16B20252943A16365
:1008B000E16B1943E163E1690D46FF3DC23D02D0A2
:1008C000256A294308432168CD680543CD60012589
:1008D000E16A2D07A94213D0012911D002290FD0B6
:1008E00003290DD004290BD0052909D0062907D0EA
:1008F000072905D010E028E0012109040843DAE7C0
:1009000021684D69ED08ED004D6121684D69A78DA5
:100910007F077F0F3D434D612168C9680E4D294017
:10092000814207D10020E063A06B80088000401C5A
:10093000A06308E0A06B022188431043A063E06B32
:100940001843E06301263046F8BDA06B1043A06356
:10095000F8E700001902FEFFE7FF3F8310B586B0FD
:10096000044614216846FFF719FC0F4920688842A5
:1009700018D10E48826941150A43826182690A4092
:100980000592426949020A43426140690840059064
:100990000220009003200190002002906946044844
:1009A00000F09AF906B010BD00240140001002408A
:1009B00000040048F8B504464069254620350E4637
:1009C00008280BD02068C068C00709D0A06B202180
:1009D0000843A063002028750120F8BD082700E027
:1009E0000C2700F023FA009011E0701C0FD0002EAD
:1009F00005D000F01BFA0099401AB04207D9A06B4D
:100A000004210843A063002028750320F8BD206856
:100A100000683842E9D0A06B012149020843A06375
:100A20002068C16809058A0F0C21002A1AD1A27E0C
:100A3000002A17D10268120714D5826853070122D1
:100A4000002B08DB43688B434360A06B1302984381
:100A50001043A06306E0A06B20231843A063E06B63
:100A60001043E063207E002801D12068016000204F
:100A7000F8BD000070B50446216800208968490768
:100A800021D425462035297D01291CD00121297535
:100A9000617E012904D02046FFF73EFD002811D1D8
:100AA000A16B0A4A1140FF2201321143A1630021C8
:100AB000E163297522681C21116021688A6804237A
:100AC0001A438A6070BD022070BD0000FEF1FFFF76
:100AD00070B5054604462035287D012807D001263B
:100AE0002E752046FFF7BCFC002802D00CE0022047
:100AF00070BD2046FFF7DDFC002805D1A16BFF2269
:100B0000013291433143A1630021297570BD70B555
:100B10000024014620314A78022A03D0042181634F
:100B2000012416E0026813680E25AB4313600268C7
:100B300013685B085B0013600122056C1346AB4031
:100B4000C56B6B604A7000220A70416B002900D0AF
:100B50008847204670BDF0B4C16B0D6801680C6811
:100B60000422066C1346B3402B420DD063070BD50D
:100B70000B689B0602D40B6893430B60016C8A40A0
:100B8000C16B4A60C16A19E00227B74002462F4094
:100B900001232032002F15D0A70713D50C68A40617
:100BA00004D40C680A25AC430C605370036C02211A
:100BB0009940C36B596000211170816A002916D0D9
:100BC000F0BC08470827B7402F4210D024070ED5A5
:100BD0000C680E25AC430C60046C1946A140C46B34
:100BE00061608363537000211170016BE6E7F0BC14
:100BF0007047000070B5040021D00221204620304B
:100C000005464170226811680E48A368014060687B
:100C100026691843E3683343184363691843A3699B
:100C20001843E3691843084310602046FFF7BEFCF1
:100C30000021A163012068702970084670BD012061
:100C400070BD00000FC0FFFFF8B504468C46203091
:100C500001780025012909D0012606704178002776
:100C6000012905D0077002252846F8BD0220F8BDED
:100C700002214170A76320680168490849000160AA
:100C800061462046FFF7A4FCE06A0028206801685E
:100C900002D00E22114306E00A22114301602068AF
:100CA00001680422914301602068016831430160BA
:100CB000DAE7000070B5044600F0B8F80546601C9D
:100CC00002D004480078241800F0B0F8401BA0427D
:100CD000FAD370BD18000020F8B5002389E0012484
:100CE0009C402A46A44622407ED04C68022C01D06B
:100CF000122C0CD1DC08A40027183C6A5D07ED0E0D
:100D00000F26AE40B4430E69AE4026433E620568EE
:100D10005E000324B4400F79A543BF07BF0FB7405F
:100D20002F4307604D68012D05D0022D03D0112DF2
:100D300001D0122D0ED18568CF68A543B7402F434F
:100D4000876047686546AF430D79ED06ED0F9D401E
:100D50003D434560C568A5438C68B4402C43C460DE
:100D60004C68E40044D5264CA56901263543A561AD
:100D7000A4699D0834400094224CAD002F19BC6832
:100D80009D072E0F0F25B540AC430925ED06A8425F
:100D900001D100250AE01C4DA84201D1012505E042
:100DA0001A4DA84201D1022500E00525B540254392
:100DB000BD60174C25684E689543F60300D5154372
:100DC000256065684E689543B60300D51543656098
:100DD000A5684E689543F60200D51543A560E56801
:100DE0004E689543B60200E002E000D51543E56089
:100DF0005B1C0A681546DA4000D070E7F8BD0000B9
:100E000000100240000001400004004800080048B3
:100E10000004014042690A4200D009048161704720
:100E2000002A01D081617047816270470148806863
:100E3000704700001800002070B502464032537819
:100E4000202B1CD11378012B19D0012313702424DB
:100E50005470046825689D432560046825681E0356
:100E6000B5432560046825680D4325600068016866
:100E700019430160202050700020107070BD0220C6
:100E800070BD70B5024640325378202B1BD11378C9
:100E9000012B18D0012414702423537003681D689B
:100EA000A5431D6005682B680F263602B34309026F
:100EB00019432960006801682143016020205070B7
:100EC0000020107070BD022070BD000070B50400DD
:100ED00006D02546403568780026002802D005E077
:100EE000012070BD2E70204600F04AF82420687062
:100EF000206801684908490001600F2160680906FF
:100F000088432168086121688A680120C003824300
:100F10008A60E1680129A16808D021229202114368
:100F200022689160E168022902D005E00143F7E7F9
:100F300001212268C902516021684A680F4B1A4397
:100F40004A602168CA688243CA60616920690843AF
:100F5000A169090208432168C860216AE069084361
:100F600021680860206801680122114301606664FD
:100F7000202068702663AE70002070BD00800002E3
:100F800010B586B0044614216846FFF707F91249E8
:100F9000206888421DD1114C616901208004014301
:100FA0006161616901400591C0200090122001211A
:100FB0000190032002910491039069460848FFF7CD
:100FC0008BFEE169012040050143E161E1690140D7
:100FD000059106B010BD0000005400400010024012
:100FE00000040048024881680278891881607047CF
:100FF0001800002010B50648016810221143016056
:10100000002000F007F800F027F8002010BD0000D5
:101010000020024070B504460D4D7D202978C000A7
:10102000FFF75EF801460B480068FFF759F800F03B
:10103000FBFC002809D1042C07D200222146401EC7
:1010400000F02AF800206C6070BD012070BD000027
:10105000180000202400002008B5084881690122FA
:1010600011438161816911400091C26901040A4301
:10107000C261C0690840009008BD00000010024035
:10108000002805DBC106C90E01208840014908601F
:101090007047000000E100E010B502F055FA10BD05
:1010A000F8B505460068354CC00352D5E069002606
:1010B000C00007D4E16920040143E161E169014016
:1010C000012600912E480168C90510D401688215D7
:1010D00011430160FFF7AAFE074604E0FFF7A6FEF2
:1010E000C01B642824D826480068C005F6D5206AAD
:1010F00003273F02384020D06968394081421CD024
:10110000206A226AB843012109040A432262226A42
:101110008A4322622062C0070FD0FFF787FE00904B
:1011200008E0FFF783FE0099411A1648814201D971
:101130000320F8BD206A8007F3D5206A6968B843A8
:1011400008432062002E04D0E1690120000781439A
:10115000E1612878C00705D0206BA968800880006D
:10116000084320632878800605D5206B102188432A
:10117000E968084320630020F8BD00000010024029
:101180000070004088130000F8B50F46060059D0E3
:101190003A4D2868C007C00FB84209D228684008F5
:1011A0004000384328602868C007C00FB84249D1C2
:1011B0003068334C81070CD5400704D5606807219F
:1011C0000902084360606068F0218843B168084301
:1011D00060603078C00726D0706801280ED0216882
:1011E00002280ED0890700292CDA61688908890055
:1011F00001436160FFF71AFE00900DE0216889034A
:10120000F1E78901EFE7FFF711FE0099411A1D4848
:10121000814201D90320F8BD60680C210840716843
:1012200089008842EFD12868C007C00FB8420BD9A7
:10123000286840084000384328602868C007C00F6D
:10124000B84201D00120F8BD3078400706D560686B
:10125000072109028843F1680843606000F028F81C
:101260006168094A0906090F515CC84007490860CE
:101270000020FFF7CFFE0020F8BD00000020024054
:101280000010024088130000B63900082400002036
:101290000448054900684968044A4905490F515CFA
:1012A000C84070472400002000100240C6390008E2
:1012B00010B514A30FCB88B06C460FC415A30FCB89
:1012C0000FC4184A51680C200B4603401648042BE3
:1012D00016D0082B14D18B021B0F6C46E45CD26A2B
:1012E00004AB1207120F9A5CC90305D500231946F7
:1012F000FEF70CFF214601E020460C4902F00CF9F4
:1013000008B010BD02030405060708090A0B0C0DFE
:101310000E0F10100102030405060708090A0B0C42
:101320000D0E0F100010024000127A0000093D005F
:10133000FEB5040070D02078DC4DC0074AD0686844
:101340000007800F012807D068680007800F022877
:1013500009D16868C00306D5286880033AD560685B
:101360000028E7D036E06168012914D0012080040C
:10137000002901D0052914D02A68012109048A43D3
:101380002A602968814329606068002816D0FFF729
:101390004DFD06460EE02868012109040843286037
:1013A000F2E7296801432960F5E7FFF73FFD801B5D
:1013B00064286ED828688003F7D50BE0FFF736FD68
:1013C000064604E0FFF732FD801B6428F1D8286848
:1013D0008003F7D420780126800700283CDA68686B
:1013E0000007800F07D068680007800F022809D126
:1013F0006868C00306D42868800716D5E06801280D
:101400000AD112E0E0680028286816D0304328602E
:10141000FFF70CFD074605E043E1FFF707FDC01BA2
:101420000228C6D828688007F7D52868F82188439D
:101430002169C900084328600EE040084000286088
:10144000FFF7F4FC074604E0FFF7F0FCC01B02289E
:10145000AFD828688007F7D42078000722D5E06944
:101460000028686A0ED030436862FFF7DFFC074649
:1014700004E0FFF7DBFCC01B02289AD8686A8007EB
:10148000F7D50FE0400840006862FFF7CFFC074641
:1014900005E09DE0FFF7CAFCC01B022889D8686AF6
:1014A0008007F7D4207804274007002860DA00205E
:1014B0000190E869C00008D4E969B8060143E96110
:1014C000E969014001200091019079480168C9054E
:1014D00011D40168821511430160FFF7A7FC009049
:1014E00005E0FFF7A3FC0099401A642870D8704803
:1014F0000068C005F5D5A06801280AD0002801D0F1
:10150000052810D0286A400840002862286AB8439D
:1015100001E0286A30432862A068002812D0FFF753
:1015200085FC00900AE0286A38432862F1E7FFF75B
:101530007DFC0099411A5F48814249D8286A80079A
:10154000F5D50DE0FFF772FC009006E0FFF76EFCAA
:101550000099411A574881423AD8286A8007F5D441
:101560000198002804D0E969012000078143E9615E
:101570002078C00635D5606901280CD0401D686B05
:1015800023D038436863686B400840006863FFF706
:101590004DFC064622E0686B38436863686B304355
:1015A0006863FFF743FC064604E0FFF73FFC801B3F
:1015B00002285BD8686B8007F7D5686BF8218843F1
:1015C000A169C900084368630BE0B8436863F4E7A6
:1015D0004CE0FFF72BFC801B022847D8686B800784
:1015E000F7D4206A00285ED069680907890F0229AC
:1015F00042D0012636060228286805D0B04328606C
:10160000FFF714FC044633E0B0432860FFF70EFCFC
:10161000074604E0FFF70AFCC01B022826D828680A
:101620008001F7D4E86AE16A000900010843E86232
:10163000616AA06A084369683D2212049143084325
:101640006860286830432860FFF7F0FB044604E038
:10165000FFF7ECFB001B022808D828688001F7D5AB
:1016600021E0FFF7E3FB001B022801D90320FEBDA8
:1016700028688001F5D416E00128F8D06868E96A86
:1016800001221204636A02409A420AD10907E26AFF
:10169000090F914205D10F2189040840A16A8842AF
:1016A00001D00120FEBD0020FEBD00000010024060
:1016B0000070004088130000F8B5040007D0002631
:1016C00025464035A662687F002802D005E001204B
:1016D000F8BD2E77204600F04BF802236B77206888
:1016E00001684022914301600721E06809028842B5
:1016F00001D9002201E0012212030F273F02B84264
:1017000002D0884200D0A662276B002F05D1884204
:1017100001D9236301E001202063A1686068636947
:1017200008432169194308430123A1695B02194059
:101730000843E1690843216A0843A16A0843216814
:101740000860616B606AA36908431B0C0427E168A9
:101750003B40194308432168104348602068C16931
:101760007A029143C1612666012068770020F8BDA6
:1017700010B586B0044614216846FEF70FFD1149E6
:10178000206888421BD11048826981140A43826113
:1017900082690A400592426989010A4342614069AF
:1017A000084005903820009002200021019003207D
:1017B00002910491039069460448FFF78DFA06B040
:1017C00010BD00000030014000100240000400483D
:1017D000FFB5044683B00120019000202546403526
:1017E0000090287F0C9F1E4601280FD001202877EB
:1017F000FFF71CFB0290687F616801280DD0CA1FAB
:10180000FD3A08D1A168002905D102E0022007B005
:10181000F0BD042801D0022004E10498002822D061
:10182000059800281FD0002E1DD0687F042801D005
:10183000052068770020206605992164EE80AE803F
:101840000499A163E687A687E06420650723E16821
:101850001B02994201D8012E07D920684168012254
:101860001203914306E00120DCE020684168012278
:1018700012031143416020680168490603D40168DE
:10188000402211430160E1686068994244D9002810
:1018900001D0012E39D1A06B21680088C860A06BEF
:1018A000801CA063E08F401EE0872EE020688168E6
:1018B000890710D5E18F00290DD0019901290AD19E
:1018C000A16B0988C160A06B801CA063E08F401EE3
:1018D000E0870020019020688168C9070DD0E98861
:1018E00000290AD0C068216C0880206C801C20640C
:1018F000E888401EE88001200190FFF797FA0299DE
:10190000401AB84201D3781C71D1E08F0028CDD1A4
:10191000E8880028CAD173E0002801D0012E69D1DF
:10192000E08F0128A06B08D921680088C860A06BEF
:10193000801CA063E08F801E07E021680078087398
:10194000A06B401CA063E08F401EE08752E020683F
:10195000816889071BD5E18F002918D001990129D9
:1019600015D1E18F0129A16B07D90988C160A06B4E
:10197000801CA063E08F801E06E009780173A06BD5
:10198000401CA063E08F401EE0870020019020688B
:101990008168C90723D0E988002920D0E988012976
:1019A00012D9C068216C0880206C801C2064E888F3
:1019B000801EE880E88801280FD82068426801214D
:1019C00009030A43426008E0007B216C0870206C28
:1019D000401C2064E888401EE88001200190FFF749
:1019E00025FA0299401AB84202D3781C02D018E0B6
:1019F000002F16D0E08F0028A9D1E8880028A6D1B2
:101A000039462046029A01F025F9002803D001202A
:101A10000090202020660120687700202877009819
:101A2000F5E603200090F6E7094910B5401E88420C
:101A300001D9012010BD074C60610321081F01F08E
:101A400083FD0020A06107202061002010BD000060
:101A5000FFFFFF0000E000E07047704730B503462D
:101A600020331A7F012A26D001221A770325CA685B
:101A70002D02AA438D6800242A430125AD02AA4302
:101A80004D6800682A430125ED02AA430D682A43E8
:101A900001252D03AA430D692A4301256D03AA439D
:101AA0004D69C9692A430125AD03AA430A4342642B
:101AB0001C77002030BD022030BD0000F0B502468A
:101AC0002032137F012B1ED0012515770223537777
:101AD00006687468B3687027BC430F682743776053
:101AE00000680A4CA04205D0AC07A04202D0084CC6
:101AF000A04204D180244968A343194381605577EB
:101B000000201077F0BD0220F0BD0000002C014045
:101B10000004004070B5040005D025462035687FDC
:101B2000002802D006E0012070BD00202877204662
:101B300000F00AF802206877211D206801F098F96A
:101B400001206877002070BD08B500680A49884206
:101B500010D10A488269012189040A43826180699F
:101B600000220840009001211620FFF795FA162068
:101B7000FFF786FA08BD000000480140001002404F
:101B80000268D36801210B43D36000688268520762
:101B9000520F062A02D002680A43026000207047F2
:101BA0007047704770B50446006801690025C94355
:101BB0008907002915DBC168C943890711D4E91ECB
:101BC000016101202077206880698007204602D0CB
:101BD000FFF7E7FF04E000F0F5F8204600F0E2F937
:101BE000257720680169C943490717D4C168C943EB
:101BF000490713D40421C9430161022020772068DA
:101C000080698005800F204602D0FFF7CAFF04E0FC
:101C100000F0D8F8204600F0C5F925772068016962
:101C2000C943090716D4C168C943090712D408215A
:101C3000C9430161042020772068C06980072046DD
:101C400002D0FFF7AEFF04E000F0BCF8204600F041
:101C5000A9F9257720680169C943C90617D4C16865
:101C6000C943C90613D41021C94301610820207754
:101C70002068C0698005800F204602D0FFF791FFE1
:101C800004E000F09FF8204600F08CF925772068EA
:101C90000169C943C90708D1C168C943C90704D14B
:101CA000891E0161204600F0CBF920680169C94313
:101CB000090609D4C168C943090605D48021C9436E
:101CC00001612046FFF7C8FE20680169C943490643
:101CD00009D4C168C943490605D44021C9430161FB
:101CE000204600F009FA20680169C943890609D431
:101CF000C168C943890605D42021C9430161204632
:101D0000FFF7ABFE70BD0000F0B587B004461421AC
:101D10006846FEF743FA274F236801220920002472
:101D20002549520402250126C006BB420BD14B694E
:101D300013434B6149696B4611400591511262C3CF
:101D400030C3694610E00127BF07BB4210D14B6981
:101D500013434B6149690294114005910F21009191
:101D60000195049503946946FEF7B6FF07B0F0BDF0
:101D7000124FBB42FAD14B6913434B614B6913407D
:101D800005934B693A1313434B614969029411401F
:101D90000591C02100910496019503946946FEF7D0
:101DA0009BFF0294009669460548049601950394AA
:101DB000DAE70000002C014000100240000400405F
:101DC0000004004809490068096888420DD10849A3
:101DD000084B487882009A58074BDA62401CC0B220
:101DE0004870082801D3002048707047180200206E
:101DF0000000002088000020002C0140F8B50646B5
:101E000004462036307F0D4601280DD00120307762
:101E1000022070770427002A08D0042A16D0082A46
:101E20002AD00C2A4DD137E00220F8BD206801F0FD
:101E3000B5F82068816908221143816120688169B1
:101E4000B9438161206881692A6912E0206801F044
:101E5000E1F8206882690121C9020A438261206891
:101E600081690122920291438161206881692A6916
:101E700012021143816124E0206801F005F9206815
:101E8000C26908210A43C2612068C169B943C161BE
:101E90002068C1692A6912E0206801F031F92068E0
:101EA000C1690122D2021143C1612068C2690121C6
:101EB00089028A43C2612068C1692A6912021143FA
:101EC000C1610120707700203077F8BD70B5040043
:101ED00005D025462035687F002802D006E0012085
:101EE00070BD00202877204600F00AF802206877AD
:101EF000211D206800F0BCFF01206877002070BD24
:101F000038B505460068224A2249904228D18A699C
:101F1000C01402438A618969204C014000911E4926
:101F20002160102161600021A1608021E160C11069
:101F3000216160612020A061C001E0612046FEF7C0
:101F400059FE002801D0FEF757FB6C6200220121E8
:101F50000E206562FFF7A0F80E20FFF791F838BD5C
:101F600001229207904207D1C86901221043C8613B
:101F7000C8691040009038BD094A9042FBD1CA6937
:101F800002200243CA61C9690140009138BD0000C6
:101F9000002C0140001002401C00024018030020E9
:101FA000000400400F4810B500210246243A4B00BF
:101FB0008C00491CC35AC9B213510829F7D10188B2
:101FC000094B591A4388C91A8388C91AC388C91A80
:101FD0000389C91A4389C91A8389C089C91A081A89
:101FE000106210BDAC000020204E000070470000C1
:101FF00010B504460068012200F07CFF0D482168FE
:10200000814205D00C48814202D00C48814204D163
:10201000486C0122D2031043486420688168490754
:10202000490F062903D001680122114301600020F5
:1020300010BD0000002C0140004401400048014058
:1020400070B5274900680968884247D1254DE8687E
:10205000401CE8602878401CC0B22870642801D178
:10206000002028700A21C0B2FEF73AF8002922D1D8
:102070001D4C1E48228800F0BBFD628804211B48CD
:1020800000F0B6FDA2880821184800F0B1FDE288F2
:102090000C21164800F0ACFD22890021144800F004
:1020A000A7FD62890421124800F0A2FDA28908213F
:1020B0000F4800F09DFD0A212878FEF711F800294D
:1020C0000CD1094900230846AA78403001F0D6FB1C
:1020D000054919224031074800F032F970BD00006F
:1020E000D802002000000020AC0000205802002090
:1020F000980200205C030020704770477047000082
:10210000F8B502680446D06911689368524D0540DD
:102110002E462025002E68D0DE07F60FFF27213738
:102120000F40374375D0C70706D0CF0504D5012728
:102130001762E26F3A43E267820708D5DA0706D0F2
:10214000276802223A62E26F04273A43E2674207B5
:1021500008D5DA0706D0236804221A62E26F022348
:102160001A43E267020709D50A462A40324305D0DE
:10217000236808221A62E36F1343E367020508D558
:102180004A0106D501222368D2021A62E26F2A436D
:10219000E267E26F002A30D0800606D5880604D5B3
:1021A000216E002901D020468847E06F21688968A8
:1021B000490602D42821084224D0204601F070F8B4
:1021C00020688168490619D5816840229143816061
:1021D000E06E002812D021494163E06EFEF797FCC3
:1021E00000280AD0E06E416B06E0860611D58E0607
:1021F0000FD5216E1DE020468847F8BD2046FFF729
:102200007DFFF8BD2046FFF779FF0020E067F8BDAD
:10221000FFE7C60208D55B0206D501200005106263
:102220002046FFF76AFFF2E7030605D50B0603D544
:10223000616E0029DFD1EAE74006E8D54806E6D519
:102240001368204640218B43136065670021616657
:1022500000F0B2F8DBE700000F0800008D32000844
:1022600010B5040003D0606F002802D007E0012001
:1022700010BD002170200155204600F027F82420D1
:10228000606720680168490849000160204601F044
:1022900017F80128ECD0606A002802D0204600F030
:1022A0005FFF206841680922D202914341602068A3
:1022B00081682A22914381602068016801221143CC
:1022C0000160204600F0B2FF10BD000010B586B0DE
:1022D000044614216846FDF761FF174920688842CB
:1022E00027D116488269012189030A4382618269E4
:1022F0000A4005924269C9000A43426140690840A8
:1023000005900320400200900220019000200290DE
:10231000032003900120049009206946C006FEF7BF
:10232000DBFC002202211B20FEF7B6FE1B20FEF77D
:10233000A7FE06B010BD00000038014000100240AA
:1023400070B5436F202B30D100290AD0002A08D065
:102350008568DC01A54206D10369002B03D1CB07B8
:1023600001D0012070BD034660331E7C012E1CD0BD
:1023700001261E74C164014640310A824A8200214E
:102380004166C16721224267A54202D10269002A43
:1023900009D0074A42661974006801688022114317
:1023A0000160002070BD034AF4E7022070BD000008
:1023B00031340008F13300087047FEE73EB50021D4
:1023C0001848009101910291416081600224144AF1
:1023D00004610260C16004224261017641760122FB
:1023E0008276FF23C176C233C36103460162203384
:1023F00019718262FEF7F6F9002801D0FEF7FCF8A9
:1024000009200090012000030190694602940548CC
:10241000FEF74CF9002801D0FEF7EEF83EBD0000B3
:10242000002401402801002008B508484169012224
:1024300011434161406910400022009011460A207A
:10244000FEF72AFE0A20FEF71BFE08BD0010024020
:10245000F0B587B014216846FDF7A0FE2348426915
:10246000012189050A43426142690A400592426995
:1024700049110A43426142690A4005924269490092
:102480000A43426140690022084005900121184832
:10249000FEF7C6FC174F092000223946C006FEF79A
:1024A000BFFC012500260095029669461048039658
:1024B0000195FEF711FC02200F4C6A4651C2694695
:1024C0000B48FEF709FC092002966946C0060097F2
:1024D00003960195FEF700FC20206A4651C20920B0
:1024E0006946C006FEF7F8FB07B0F0BD00100240D9
:1024F00000140048108000000000111010B51348AF
:10250000114901601249416000218160016141610E
:1025100081610122C161C2600162FEF7D7FC00281F
:1025200001D0FEF769F800210848FEF785FC002875
:1025300001D0FEF761F800210448FEF7A2FC002854
:1025400001D0FEF759F810BD00540040680100208A
:102550000B02000010B511480F490160FF21053141
:10256000416000210722816012020161C2600122E4
:10257000416152028261016210224162C261816244
:102580000722C262016308214163FFF795F8002822
:1025900001D0FEF731F810BD00300140B401002039
:1025A00010B50B48094901600A494160002181606A
:1025B00009220161C260416180218161FFF7AAFAAD
:1025C000002801D0FEF718F810BD000000480140B7
:1025D000D8020020BF12000010B592B000240F9462
:1025E0001C2108A81094FDF7D9FD20216846FDF7AD
:1025F000D5FD2448224901602F2184604160046197
:1026000021494461C16080218161FFF75FFC00289E
:1026100001D0FDF7F1FF20200FA911C11948083999
:10262000FFF74CFA002801D0FDF7E6FF6020089084
:10263000FF20F530099002200A900B940C940D9421
:10264000002208A90E940F48FFF7D8FB002801D0FC
:10265000FDF7D2FF012000944003029405900194FD
:1026600003940494694607940648FFF7F7F9002895
:1026700001D0FDF7C1FF0348FFF746FB12B010BDC4
:10268000002C014018020020DC05000010B58AB0C3
:10269000002407941C2168460894FDF77FFD012162
:1026A0002448890701602F21846041602249046128
:1026B000C16080218161FFF709FC002801D0FDF78E
:1026C0009BFF079407A91B480894FFF7F7F9002818
:1026D00001D0FDF791FF602000901848019002940E
:1026E0000022694604941348FFF788FB002801D0B4
:1026F000FDF782FF042269460E48FFF77FFB0028A2
:1027000001D0FDF779FF082269460A48FFF776FBFA
:10271000002801D0FDF770FF0C2269460548FFF73D
:102720006DFB002801D0FDF767FF0248FFF7ECFAC8
:102730000AB010BD58020020204E0000DC05000049
:1027400010B58AB0002407941C2168460894FDF750
:1027500025FD21481F4901602F21846041601F49E8
:102760000461C16080218161FFF7B0FB002801D0C6
:10277000FDF742FF079407A917480894FFF79EF951
:10278000002801D0FDF738FF602000901448019028
:1027900002940022694604940F48FFF72FFB00289B
:1027A00001D0FDF729FF042269460B48FFF726FBFD
:1027B000002801D0FDF720FF082269460648FFF7F0
:1027C0001DFB002801D0FDF717FF0348FFF79CFA17
:1027D0000AB010BD0004004098020020204E000006
:1027E000DC05000010B51248104901601149416034
:1027F0000121090381604900C160C91001610C21F8
:10280000416100218161C1610121C902016203218D
:1028100041620121490481624910C162FFF720FD34
:10282000002801D0FDF7E8FE10BD0000003801408F
:102830005C030020A0860100F8B504460E46203057
:10284000417F1546022903D0417F012902D007E0CC
:102850000220F8BD002D01D1002B75D10221417756
:102860003D483E493E4A002E06D0042E17D0082E81
:1028700049D00C2E27D159E0676AB862606AC162FC
:10288000606A294602632268606A2C32FEF7DCF92E
:10289000002859D12068C1680122520211E0A76ABC
:1028A000B862A06AC162A06A294602632268A06A6F
:1028B0003832FEF7C9F9002846D12068C1680122E4
:1028C00092021143C16001223146206800F012FBE0
:1028D00024492068884205D02349884202D02349F0
:1028E000884204D1416C0122D20311434164206823
:1028F00081684907490F062903D001680122114365
:1029000001600020F8BDE76AB862E06AC162E06A6F
:10291000294602632268E06A3C32FEF795F90028F6
:1029200012D12068C1680122D202CAE7276BB862BF
:10293000206BC162206B294602632268206B403203
:10294000FEF782F9002801D00120F8BD2068C16897
:1029500001221203B5E700000F2F00084D2F0008D9
:102960008B2F0008002C014000440140004801402A
:10297000704700001CB510A103C900900191082008
:1029800000F04EF905226946302000F0EDF80522EE
:102990006946102000F074F8002069460A5CA52AF8
:1029A00003D1401CC0B20528F8D3052801D001206E
:1029B0001CBD00201CBD0000A5A5A5A5A50000000C
:1029C00010B5154886B04269012149040A434261A5
:1029D0004069092408400590104800900120E40651
:1029E000019069462046FEF777F9202000900020EC
:1029F000019069462046FEF76FF900F0A1F8002229
:102A000010212046FEF70CFA0122D1032046FEF7E2
:102A100007FA06B010BD0000001002401080000050
:102A200010B50924E406002210212046FEF7F8F92B
:102A30000F21202000F0BEF80121212000F0BAF87B
:102A40000121222000F0B6F82821252000F0B2F85C
:102A50000F21262000F0AEF82021312000F0AAF846
:102A6000052206492A2000F07FF801221021204685
:102A7000FEF7D6F90120FEF71DF910BDB1390008A7
:102A8000F8B50F4604461546012109200022C90366
:102A9000C006FEF7C5F921460B4800F08FF906463F
:102AA000002406E0FF21084800F088F93855641C2E
:102AB000E4B2AC42F6D301220920D103C006FEF7EE
:102AC000AFF93046F8BD0000B401002070B5012513
:102AD00009260446ED03F606002229463046FEF795
:102AE0009FF92146074800F069F9FF21054800F0E9
:102AF00065F90446012229463046FEF791F9204641
:102B000070BD0000B401002070B50546102000F033
:102B100087F80720FFF7DAFF04460146272000F078
:102B200049F860060AD5202229466120FFF7A8FF50
:102B3000FF21E22000F03EF8002070BD012070BDB2
:102B400070B5084C206801684025A9430160002049
:102B5000206160612046FEF7AFFD206801682943CF
:102B6000016070BDB4010020F8B50D46044616465C
:102B7000012109200022C903C006FEF751F92146B0
:102B80000B4800F01BF90746002406E029780848A6
:102B90006D1C00F013F9641CE4B2B442F6D30122B8
:102BA0000920D103C006FEF73BF93846F8BD000006
:102BB000B4010020F8B5012509260F460446ED03AF
:102BC000F606002229463046FEF72AF92146074834
:102BD00000F0F4F804463946044800F0EFF801220A
:102BE00029463046FEF71CF92046F8BDB401002006
:102BF000094B9A4200D91A460068002905D00429D9
:102C000005D0082905D0026470474263704782638B
:102C10007047C26370470000204E000070470000FC
:102C200030B50A490B681C68402294431C600B684D
:102C30001C68074D2C401C600B681C6804431C601A
:102C4000086801681143016030BD0000B401002034
:102C5000C7FF0000F8B50F460B461546009203214A
:102C600004460022C90200F01BF82026002812D1D9
:102C70003B46002280212046009500F059F80028AC
:102C800009D103213B46002249022046009500F06D
:102C900007F8002803D0206E304320660320F8BDDB
:102CA000F8B51D4617460E46044610E003214902BA
:102CB0008E4202D1002F00D1007B681C07D0FEF7A6
:102CC000B5F80699401AA84208D2002D06D020680F
:102CD00081683140B942E9D10020F8BD20684168DF
:102CE000E022914341606068C11FFD390CD1012190
:102CF000A068C903884202D04911884204D12068E3
:102D000001684022914301600120A16A4003814291
:102D100007D121680A6882430A6021680A68024371
:102D20000A60012040346077002020770320F8BD3E
:102D3000F8B51D4617460E46044609E0681C07D044
:102D4000FEF774F80699401AA8420BD2002D09D05C
:102D500020688168304688432ED00020B842EDD1EB
:102D60000020F8BD20684168E0229143416060681E
:102D7000C11FFD390CD10121A068C903884202D0CE
:102D80004911884204D120680168402291430160C2
:102D90000120A16A4003814207D121680A68824369
:102DA0000A6021680A6802430A60012040346077A3
:102DB000002020770320F8BD0120CFE73EB56A460A
:102DC0001172FF24012301AA02A90094FEF700FD5D
:102DD000002801D068460471684600793EBD7047FE
:102DE00010B5FEF7FFF810BD30B595B0302168463C
:102DF000FDF7D4F900240F94122000900D940120C7
:102E000012940390059010200E9410941394049043
:102E100006900520C0040C9402250A901194089590
:102E200009940B946846FEF783FA07200C900E94E1
:102E300001210D950F940CA8FEF7A6F92120109002
:102E40001294139410A8FEF72BF915B030BD7047FB
:102E500010B50248FEF7A6FE10BD0000D802002003
:102E600010B50248FEF79EFE10BD000018020020BB
:102E7000F0B502681A4B0124A4071A4D984203D0FA
:102E8000A04201D0A84203D17026B2434E6832431B
:102E9000154E164F98420AD0A04208D0A84206D03C
:102EA000134CA04203D0B04201D0B84204D1032455
:102EB0002402A243CC6822438024A2434C692243CB
:102EC00002608A68C2620A688262984203D0B04295
:102ED00001D0B84201D10969016301214161F0BD0E
:102EE000002C014000040040004401400048014023
:102EF0000020004010B5CB06DB0E0121046A99408A
:102F00008C430462016A9A401143016210BD10B5FE
:102F1000446A01213D221155626A824201D1217722
:102F20000EE0A16A814201D1022008E0E16A8142FB
:102F300001D1042003E0216B814201D108202077D8
:102F40002046FFF72FF80020207710BD10B5446A07
:102F500001213D221155626A824201D121770EE0A2
:102F6000A16A814201D1022008E0E16A814201D1D7
:102F7000042003E0216B814201D108202077204604
:102F8000FFF734F80020207710BD10B5406A012209
:102F90003D210A54FEF704FE10BD0000F0B5026AA0
:102FA000520852000262056A436882697024A24393
:102FB00092080C6892001443022295438A68134ECB
:102FC0002A43114DA84204D0B04202D0104FB8425B
:102FD00006D10827BA43CF681743042297433A46DD
:102FE000A84204D0B04202D0094DA84206D1032520
:102FF0002D02AB434D691D438B692B4343608461B4
:10300000496841630262F0BD002C01400044014068
:103010000048014070B5026A10239A430262046AB4
:103020004368826973252D02AA430D682D0215435A
:10303000202294438A6812012243104CA04208D1F6
:103040001446CA688026B443120122434024A24396
:1030500005E00B4CA04202D00A4CA04208D1032448
:10306000A402A3434C69A4001C438B699B00234327
:103070004360856149688163026270BD002C014034
:10308000004401400048014070B5026AFF2301334B
:103090009A430262046A4368C2697025AA4392088F
:1030A0000D68920015430122520294438A6812026D
:1030B0002243104CA04207D1C414A243CC6824027E
:1030C00022430615B24305E00B4CA04202D00B4C44
:1030D000A04208D103242403A3434C6924011C43C8
:1030E0008B691B0123434360C5614968C163026268
:1030F00070BD0000002C0140004401400048014028
:1031000030B5026A01231B039A430262056A4268D2
:10311000C36973242402A3430C6824021C430123C3
:103120005B039D438B681B032B430A4DA84205D0CC
:10313000094DA84202D0094DA84205D10125AD0391
:10314000AA434D69AD012A434260C46149680164E4
:10315000036230BD002C01400044014000480140A2
:1031600010B5818CC90707D001684A6801235B0448
:103170009A43836A1A434A60818C890707D501689C
:103180004A6801231B049A43C36A1A434A60818C2C
:10319000490707D501684A6801239B049A43036BDA
:1031A0001A434A60818C090707D501684A680123E0
:1031B000DB039A43436B1A434A60818CC90607D5E7
:1031C0000268916801231B039943836B1943916043
:1031D000818C890607D501688A6801235B039A43BD
:1031E000C36B1A438A60818C490612D503685A68FA
:1031F00001210905046C8A4322435A60026C8A4209
:1032000007D10268516803235B059943436C194356
:103210005160818C090607D501684A680123DB04E7
:10322000806C9A4302434A6010BD0000F8B5002646
:103230000446C667FDF7FAFD054620680068124F90
:10324000000709D501212B46002249052046009799
:1032500000F00CF900280DD12068006840070BD55C
:1032600001212B46002289052046009700F0FEF838
:10327000002801D00320F8BD20206067A0676034DB
:1032800026740020F8BD0000FFFFFF0110B5406A62
:103290000022014640314A834A82FEF72FFF10BDCB
:1032A00001680A68FF2321339A430A6001688A682B
:1032B000520852008A602021816700210166704710
:1032C00070B5044680682169E26908436169002598
:1032D0001143226808431168404B194001431160B3
:1032E00021684868032212039043E2681043486053
:1032F000A169206A2268084391680B231B02994345
:10330000014391603648006B8007800F06D001288A
:1033100015D0022815D003280FD010200122E16912
:10332000D203304E91422ED100280CD002280DD06D
:1033300004281DD008284AD120E00220EEE704200E
:10334000ECE70820EAE7FDF7A3FF13E06168264AEF
:1033500048088018FCF7C4FE80B201461039B1421B
:1033600035D82049491C01400007400F084321E09F
:10337000FDF79EFF616840004A08EAE761680122A4
:1033800048081204E5E7002806D0022807D00428E0
:1033900013D008281BD116E0FDF77AFF0FE0616813
:1033A000124A480811E0FCF79BFE80B20146103932
:1033B000B1420CD82168C8600AE0FDF779FF616866
:1033C0004A081018EFE7616848088018EBE7012504
:1033D000002020666066284670BD0000F369FFFF8C
:1033E00000100240EFFF00000024F40000127A00F9
:1033F000416F212910D1014640314A8A002A0CD060
:10340000C26C03681288D205D20D1A85C26C921C58
:10341000C264488A401E4882704701680A68802357
:103420009A430A60006801684022114301607047B6
:10343000416F21290ED1014640314A8A002A0AD023
:10344000C26C036812781A85C26C521CC264488A26
:10345000401E4882704701680A6880239A430A60C8
:10346000006801684022114301607047FFB581B0D8
:1034700005460F46044660350A9E38E0701C36D07B
:10348000FDF7D4FC0499401AB04221D8002E1FD079
:103490002068016849072AD5C069C043000526D4C1
:1034A00001202168C002086220680168FF22A13261
:1034B00091430160206881684908490081602020AB
:1034C0006067A067E06700202874032005B0F0BDA6
:1034D00020680168FF22A132914301602068816861
:1034E00049084900816020206067A067EBE72068F9
:1034F000C1693846884305D0002103988142BDD078
:103500000020E3E70121F8E710B50248FEF7F8FDD7
:1035100010BD00005C030020F8B5040C8BB22646F9
:1035200082B25E430D0C1046370C584336048019A6
:103530000021794116466E43370C360480197941D3
:1035400026466E438919F8BD8307FF22DB0E9A4099
:103550008907090E9940002808DB830809489B0069
:103560001B18186890430843186070470007000F45
:103570000838830804489B001B18D8699043084307
:10358000D861704700E400E000ED00E002E008C808
:10359000121F08C1002AFAD170477047002001E0CD
:1035A00001C1121F002AFBD170470000FDF722FD68
:1035B000FFF71AFCFEF74CFFFEF736FFFFF766F841
:1035C000FEF7FCFEFEF7C6FFFFF706F8FFF7B8F8B8
:1035D000FEF794FFFEF7E4FFFFF704F9FF20F53054
:1035E000FDF768FBFFF7ECF98B4C00218B4E8C4DFF
:1035F000A180A0884200401C80B2B552A080102853
:10360000F7D37D27FF00B7800020A0808348443097
:10361000A1884A00491CB35A89B28352A18010295B
:10362000F6D300217D4AA180203289B24B008E0062
:10363000491CC35A89B29351A1800829F5D3774E0A
:103640007849443630880923081A7188401AB188AD
:10365000401AF188401A3189401A7189401AB1899B
:10366000401AF189401A10623246243A00216E480D
:10367000FFF7E2F800216D48FEF7BAFC04216B4821
:10368000FEF7B6FC08216948FEF7B2FC0C2167483A
:10369000FEF7AEFC00216648FEF7AAFC0421644850
:1036A000FEF7A6FC08216248FEF7A2FC3288002142
:1036B0005E48FFF79DFA728804215C48FFF798FA8C
:1036C000B28808215948FFF793FAF2880C2157482D
:1036D000FFF78EFA328900215548FFF789FA72897F
:1036E00004215348FFF784FAB28908215048FFF7B4
:1036F0007FFA5048FEF744FAFF26F53606E03046DA
:10370000FDF7D8FA01214C48FDF784FBFFF732F9A9
:103710000028F4D1FFF784F940489D30FFF7F4F911
:10372000002840D100233D48A3809D30A188425C01
:10373000002A03D142185278002A69D0491C89B264
:10374000A1801029F2D30021A1803448E1889D3066
:1037500042185078127800021043A2882F4B40BACA
:10376000560064339853002801D0203B9853891C9D
:10377000521C90B2E180A0800828E6D30820274997
:10378000A080443180B24200401C80B28D52A080A3
:103790001028F7D3012211462748FDF741FB0020EE
:1037A000A070E06820612169E068401A7D2109016C
:1037B00088420ED901212048FDF72CFB0120A07082
:1037C00016484430058045808780C580C820FDF7B5
:1037D00071FA6169E068411AB9429DD96061174880
:1037E000FCF70BFF1548FDF745F932211348FDF7AB
:1037F000E1F81248FCF7F0FF800505D50F48FCF70B
:10380000EDFF20810009E0700C48FDF761F983E7C6
:1038100089B2891CE18096E7000000206800002042
:10382000DC050000204E0000180200205802002095
:1038300098020020D802002000140048280100202F
:10384000FFB581B007460E4610460A9CFCF702FD04
:10385000054620460499FCF7FDFC044631463846EF
:10386000FCF7F8FC2146FCF7FDFC2946FCF737FD88
:103870000499FCF79EFC05B0F0BD0000FFB5464D75
:1038800081B00F46044600267000385AFCF765FDEB
:1038900042490091424B434A4349FFF7D1FFFCF7AD
:1038A00063FDB100761CF6B26850102EECD303997C
:1038B0000020002900D004200499002901D008210B
:1038C00008430F2121702988617049054A0FA98892
:1038D000CB001A43A27049058A0E29898B011A432D
:1038E000E2708A082271AA894905C90F5300194359
:1038F000617151050A0F298A0B011A43A27149050A
:103900004A0EA98ACB011A43E2714A0822722A8B15
:103910004905890F9300194361725105AA8BC90E9D
:1039200053011943A172D108E172298C2173490511
:103930004A0FA98CCB001A43627349058A0E298D60
:103940008B011A43A2738A08E273AA8D4905C90F35
:1039500053001943217451052A8E090F130119438D
:10396000617451054A0EA98ECB011A43A2744A080C
:10397000E27449058A0F298F8B001A432275AA8F9A
:103980004905C90E530119436175D108A175E07548
:103990000020207605B0F0BD280000200060E24441
:1039A00000002D430000FA4400007A443443101014
:1039B000013443101001000000000000000001026B
:1039C00003040607080900000000010203040000C8
:1039D000F039000800000020280000008C350008A5
:1039E000183A000828000020B80700009C3500089D
:1039F00000000000000000000000000000000000C7
:103A000000000000000000000100000004000000B1
:083A10000000000000127A0022
:04000005080000B13E
:00000001FF
